{
  "contractName": "PostIt",
  "abi": [
    {
      "constant": true,
      "inputs": [
        {
          "name": "",
          "type": "uint256"
        }
      ],
      "name": "posts",
      "outputs": [
        {
          "name": "title",
          "type": "string"
        },
        {
          "name": "content",
          "type": "string"
        },
        {
          "name": "votes",
          "type": "uint256"
        },
        {
          "name": "author",
          "type": "string"
        },
        {
          "name": "accountAddress",
          "type": "address"
        }
      ],
      "payable": false,
      "stateMutability": "view",
      "type": "function",
      "signature": "0x0b1e7f83"
    },
    {
      "constant": true,
      "inputs": [
        {
          "name": "",
          "type": "address"
        }
      ],
      "name": "enrolled",
      "outputs": [
        {
          "name": "",
          "type": "bool"
        }
      ],
      "payable": false,
      "stateMutability": "view",
      "type": "function",
      "signature": "0x10eb0e0e"
    },
    {
      "constant": true,
      "inputs": [
        {
          "name": "",
          "type": "address"
        }
      ],
      "name": "userProfiles",
      "outputs": [
        {
          "name": "firstName",
          "type": "string"
        },
        {
          "name": "lastName",
          "type": "string"
        },
        {
          "name": "email",
          "type": "string"
        },
        {
          "name": "accountAddress",
          "type": "address"
        }
      ],
      "payable": false,
      "stateMutability": "view",
      "type": "function",
      "signature": "0x332d56d7"
    },
    {
      "constant": true,
      "inputs": [
        {
          "name": "",
          "type": "uint256"
        }
      ],
      "name": "upVotersIndexes",
      "outputs": [
        {
          "name": "",
          "type": "address"
        }
      ],
      "payable": false,
      "stateMutability": "view",
      "type": "function",
      "signature": "0x465e19e4"
    },
    {
      "constant": true,
      "inputs": [
        {
          "name": "",
          "type": "uint256"
        }
      ],
      "name": "downVotersIndexes",
      "outputs": [
        {
          "name": "",
          "type": "address"
        }
      ],
      "payable": false,
      "stateMutability": "view",
      "type": "function",
      "signature": "0x4c520179"
    },
    {
      "constant": true,
      "inputs": [],
      "name": "owner",
      "outputs": [
        {
          "name": "",
          "type": "address"
        }
      ],
      "payable": false,
      "stateMutability": "view",
      "type": "function",
      "signature": "0x8da5cb5b"
    },
    {
      "constant": true,
      "inputs": [
        {
          "name": "",
          "type": "uint256"
        }
      ],
      "name": "postsIndexes",
      "outputs": [
        {
          "name": "",
          "type": "uint256"
        }
      ],
      "payable": false,
      "stateMutability": "view",
      "type": "function",
      "signature": "0xcf1514df"
    },
    {
      "constant": true,
      "inputs": [
        {
          "name": "",
          "type": "uint256"
        }
      ],
      "name": "commentsIndexes",
      "outputs": [
        {
          "name": "",
          "type": "address"
        }
      ],
      "payable": false,
      "stateMutability": "view",
      "type": "function",
      "signature": "0xe57835db"
    },
    {
      "inputs": [],
      "payable": false,
      "stateMutability": "nonpayable",
      "type": "constructor",
      "signature": "constructor"
    },
    {
      "payable": false,
      "stateMutability": "nonpayable",
      "type": "fallback"
    },
    {
      "anonymous": false,
      "inputs": [
        {
          "indexed": false,
          "name": "accountAddress",
          "type": "address"
        }
      ],
      "name": "LogEnrolled",
      "type": "event",
      "signature": "0x990c442e6adb818b8fa7db3cf1023decd07f7b66e5306928c7ed527d974192bb"
    },
    {
      "anonymous": false,
      "inputs": [
        {
          "indexed": false,
          "name": "postId",
          "type": "uint256"
        },
        {
          "indexed": false,
          "name": "title",
          "type": "string"
        },
        {
          "indexed": false,
          "name": "fullName",
          "type": "string"
        },
        {
          "indexed": false,
          "name": "accountAddress",
          "type": "address"
        }
      ],
      "name": "LogNewPostAdded",
      "type": "event",
      "signature": "0x21edf9224b62eb9a1b2afe9069818c0c4b09d2b91c65d6d7ec3042d875344c9c"
    },
    {
      "anonymous": false,
      "inputs": [
        {
          "indexed": false,
          "name": "postId",
          "type": "uint256"
        },
        {
          "indexed": false,
          "name": "title",
          "type": "string"
        },
        {
          "indexed": false,
          "name": "votes",
          "type": "uint256"
        },
        {
          "indexed": false,
          "name": "fullName",
          "type": "string"
        },
        {
          "indexed": false,
          "name": "accountAddress",
          "type": "address"
        }
      ],
      "name": "LogUpVote",
      "type": "event",
      "signature": "0x98e1d91a2bc9a918d3d72633202ff90ec371f12c8a3e926e02f2e54e2fba5806"
    },
    {
      "anonymous": false,
      "inputs": [
        {
          "indexed": false,
          "name": "postId",
          "type": "uint256"
        },
        {
          "indexed": false,
          "name": "title",
          "type": "string"
        },
        {
          "indexed": false,
          "name": "votes",
          "type": "uint256"
        },
        {
          "indexed": false,
          "name": "fullName",
          "type": "string"
        },
        {
          "indexed": false,
          "name": "accountAddress",
          "type": "address"
        }
      ],
      "name": "LogDownVote",
      "type": "event",
      "signature": "0x71f825e64e98d64528a0908df96a3ee568967b7f0c4a55b50add80659ecb5a9c"
    },
    {
      "constant": false,
      "inputs": [
        {
          "name": "firstName",
          "type": "string"
        },
        {
          "name": "lastName",
          "type": "string"
        },
        {
          "name": "email",
          "type": "string"
        }
      ],
      "name": "enroll",
      "outputs": [
        {
          "name": "",
          "type": "bool"
        }
      ],
      "payable": false,
      "stateMutability": "nonpayable",
      "type": "function",
      "signature": "0xd09a169c"
    },
    {
      "constant": true,
      "inputs": [],
      "name": "getUserProfile",
      "outputs": [
        {
          "name": "",
          "type": "string"
        },
        {
          "name": "",
          "type": "string"
        },
        {
          "name": "",
          "type": "string"
        },
        {
          "name": "",
          "type": "address"
        }
      ],
      "payable": false,
      "stateMutability": "view",
      "type": "function",
      "signature": "0x6f61c744"
    },
    {
      "constant": false,
      "inputs": [
        {
          "name": "title",
          "type": "string"
        },
        {
          "name": "content",
          "type": "string"
        },
        {
          "name": "vote",
          "type": "uint256"
        }
      ],
      "name": "addPostIt",
      "outputs": [
        {
          "name": "",
          "type": "bool"
        }
      ],
      "payable": false,
      "stateMutability": "nonpayable",
      "type": "function",
      "signature": "0x389950ae"
    },
    {
      "constant": true,
      "inputs": [
        {
          "name": "_postId",
          "type": "uint256"
        }
      ],
      "name": "getPost",
      "outputs": [
        {
          "name": "",
          "type": "uint256"
        },
        {
          "name": "",
          "type": "string"
        },
        {
          "name": "",
          "type": "string"
        },
        {
          "name": "",
          "type": "uint256"
        },
        {
          "name": "",
          "type": "string"
        },
        {
          "name": "",
          "type": "address"
        }
      ],
      "payable": false,
      "stateMutability": "view",
      "type": "function",
      "signature": "0x40731c24"
    },
    {
      "constant": false,
      "inputs": [
        {
          "name": "_postId",
          "type": "uint256"
        }
      ],
      "name": "makeUpVote",
      "outputs": [
        {
          "name": "",
          "type": "address"
        }
      ],
      "payable": false,
      "stateMutability": "nonpayable",
      "type": "function",
      "signature": "0x492faa07"
    },
    {
      "constant": false,
      "inputs": [
        {
          "name": "_postId",
          "type": "uint256"
        }
      ],
      "name": "makeDownVote",
      "outputs": [
        {
          "name": "",
          "type": "address"
        }
      ],
      "payable": false,
      "stateMutability": "nonpayable",
      "type": "function",
      "signature": "0x5845293d"
    },
    {
      "constant": true,
      "inputs": [],
      "name": "getAllPosts",
      "outputs": [
        {
          "name": "",
          "type": "uint256[]"
        }
      ],
      "payable": false,
      "stateMutability": "view",
      "type": "function",
      "signature": "0x30561100"
    },
    {
      "constant": true,
      "inputs": [],
      "name": "getAllUpVoters",
      "outputs": [
        {
          "name": "",
          "type": "address[]"
        }
      ],
      "payable": false,
      "stateMutability": "view",
      "type": "function",
      "signature": "0x05c54609"
    },
    {
      "constant": true,
      "inputs": [],
      "name": "getAllDownVoters",
      "outputs": [
        {
          "name": "",
          "type": "address[]"
        }
      ],
      "payable": false,
      "stateMutability": "view",
      "type": "function",
      "signature": "0x41671ef9"
    }
  ],
  "bytecode": "0x608060405234801561001057600080fd5b5033600960006101000a81548173ffffffffffffffffffffffffffffffffffffffff021916908373ffffffffffffffffffffffffffffffffffffffff16021790555060016007819055506134d6806100696000396000f3fe6080604052600436106100f1576000357c0100000000000000000000000000000000000000000000000000000000900463ffffffff16806305c54609146101035780630b1e7f831461016f57806310eb0e0e14610335578063305611001461039e578063332d56d71461040a578063389950ae146105df57806340731c241461076057806341671ef91461092d578063465e19e414610999578063492faa0714610a145780634c52017914610a8f5780635845293d14610b0a5780636f61c74414610b855780638da5cb5b14610d20578063cf1514df14610d77578063d09a169c14610dc6578063e57835db14610fd4575b3480156100fd57600080fd5b50600080fd5b34801561010f57600080fd5b5061011861104f565b6040518080602001828103825283818151815260200191508051906020019060200280838360005b8381101561015b578082015181840152602081019050610140565b505050509050019250505060405180910390f35b34801561017b57600080fd5b506101a86004803603602081101561019257600080fd5b81019080803590602001909291905050506110dd565b604051808060200180602001868152602001806020018573ffffffffffffffffffffffffffffffffffffffff1673ffffffffffffffffffffffffffffffffffffffff168152602001848103845289818151815260200191508051906020019080838360005b8381101561022857808201518184015260208101905061020d565b50505050905090810190601f1680156102555780820380516001836020036101000a031916815260200191505b50848103835288818151815260200191508051906020019080838360005b8381101561028e578082015181840152602081019050610273565b50505050905090810190601f1680156102bb5780820380516001836020036101000a031916815260200191505b50848103825286818151815260200191508051906020019080838360005b838110156102f45780820151818401526020810190506102d9565b50505050905090810190601f1680156103215780820380516001836020036101000a031916815260200191505b509850505050505050505060405180910390f35b34801561034157600080fd5b506103846004803603602081101561035857600080fd5b81019080803573ffffffffffffffffffffffffffffffffffffffff1690602001909291905050506112fb565b604051808215151515815260200191505060405180910390f35b3480156103aa57600080fd5b506103b361131b565b6040518080602001828103825283818151815260200191508051906020019060200280838360005b838110156103f65780820151818401526020810190506103db565b505050509050019250505060405180910390f35b34801561041657600080fd5b506104596004803603602081101561042d57600080fd5b81019080803573ffffffffffffffffffffffffffffffffffffffff169060200190929190505050611373565b604051808060200180602001806020018573ffffffffffffffffffffffffffffffffffffffff1673ffffffffffffffffffffffffffffffffffffffff168152602001848103845288818151815260200191508051906020019080838360005b838110156104d35780820151818401526020810190506104b8565b50505050905090810190601f1680156105005780820380516001836020036101000a031916815260200191505b50848103835287818151815260200191508051906020019080838360005b8381101561053957808201518184015260208101905061051e565b50505050905090810190601f1680156105665780820380516001836020036101000a031916815260200191505b50848103825286818151815260200191508051906020019080838360005b8381101561059f578082015181840152602081019050610584565b50505050905090810190601f1680156105cc5780820380516001836020036101000a031916815260200191505b5097505050505050505060405180910390f35b3480156105eb57600080fd5b506107466004803603606081101561060257600080fd5b810190808035906020019064010000000081111561061f57600080fd5b82018360208201111561063157600080fd5b8035906020019184600183028401116401000000008311171561065357600080fd5b91908080601f016020809104026020016040519081016040528093929190818152602001838380828437600081840152601f19601f820116905080830192505050505050509192919290803590602001906401000000008111156106b657600080fd5b8201836020820111156106c857600080fd5b803590602001918460018302840111640100000000831117156106ea57600080fd5b91908080601f016020809104026020016040519081016040528093929190818152602001838380828437600081840152601f19601f8201169050808301925050505050505091929192908035906020019092919050505061158b565b604051808215151515815260200191505060405180910390f35b34801561076c57600080fd5b506107996004803603602081101561078357600080fd5b8101908080359060200190929190505050611b05565b604051808781526020018060200180602001868152602001806020018573ffffffffffffffffffffffffffffffffffffffff1673ffffffffffffffffffffffffffffffffffffffff168152602001848103845289818151815260200191508051906020019080838360005b8381101561081f578082015181840152602081019050610804565b50505050905090810190601f16801561084c5780820380516001836020036101000a031916815260200191505b50848103835288818151815260200191508051906020019080838360005b8381101561088557808201518184015260208101905061086a565b50505050905090810190601f1680156108b25780820380516001836020036101000a031916815260200191505b50848103825286818151815260200191508051906020019080838360005b838110156108eb5780820151818401526020810190506108d0565b50505050905090810190601f1680156109185780820380516001836020036101000a031916815260200191505b50995050505050505050505060405180910390f35b34801561093957600080fd5b50610942611d8d565b6040518080602001828103825283818151815260200191508051906020019060200280838360005b8381101561098557808201518184015260208101905061096a565b505050509050019250505060405180910390f35b3480156109a557600080fd5b506109d2600480360360208110156109bc57600080fd5b8101908080359060200190929190505050611e1b565b604051808273ffffffffffffffffffffffffffffffffffffffff1673ffffffffffffffffffffffffffffffffffffffff16815260200191505060405180910390f35b348015610a2057600080fd5b50610a4d60048036036020811015610a3757600080fd5b8101908080359060200190929190505050611e59565b604051808273ffffffffffffffffffffffffffffffffffffffff1673ffffffffffffffffffffffffffffffffffffffff16815260200191505060405180910390f35b348015610a9b57600080fd5b50610ac860048036036020811015610ab257600080fd5b8101908080359060200190929190505050612573565b604051808273ffffffffffffffffffffffffffffffffffffffff1673ffffffffffffffffffffffffffffffffffffffff16815260200191505060405180910390f35b348015610b1657600080fd5b50610b4360048036036020811015610b2d57600080fd5b81019080803590602001909291905050506125b1565b604051808273ffffffffffffffffffffffffffffffffffffffff1673ffffffffffffffffffffffffffffffffffffffff16815260200191505060405180910390f35b348015610b9157600080fd5b50610b9a612ccb565b604051808060200180602001806020018573ffffffffffffffffffffffffffffffffffffffff1673ffffffffffffffffffffffffffffffffffffffff168152602001848103845288818151815260200191508051906020019080838360005b83811015610c14578082015181840152602081019050610bf9565b50505050905090810190601f168015610c415780820380516001836020036101000a031916815260200191505b50848103835287818151815260200191508051906020019080838360005b83811015610c7a578082015181840152602081019050610c5f565b50505050905090810190601f168015610ca75780820380516001836020036101000a031916815260200191505b50848103825286818151815260200191508051906020019080838360005b83811015610ce0578082015181840152602081019050610cc5565b50505050905090810190601f168015610d0d5780820380516001836020036101000a031916815260200191505b5097505050505050505060405180910390f35b348015610d2c57600080fd5b50610d35612fe0565b604051808273ffffffffffffffffffffffffffffffffffffffff1673ffffffffffffffffffffffffffffffffffffffff16815260200191505060405180910390f35b348015610d8357600080fd5b50610db060048036036020811015610d9a57600080fd5b8101908080359060200190929190505050613006565b6040518082815260200191505060405180910390f35b348015610dd257600080fd5b50610fba60048036036060811015610de957600080fd5b8101908080359060200190640100000000811115610e0657600080fd5b820183602082011115610e1857600080fd5b80359060200191846001830284011164010000000083111715610e3a57600080fd5b91908080601f016020809104026020016040519081016040528093929190818152602001838380828437600081840152601f19601f82011690508083019250505050505050919291929080359060200190640100000000811115610e9d57600080fd5b820183602082011115610eaf57600080fd5b80359060200191846001830284011164010000000083111715610ed157600080fd5b91908080601f016020809104026020016040519081016040528093929190818152602001838380828437600081840152601f19601f82011690508083019250505050505050919291929080359060200190640100000000811115610f3457600080fd5b820183602082011115610f4657600080fd5b80359060200191846001830284011164010000000083111715610f6857600080fd5b91908080601f016020809104026020016040519081016040528093929190818152602001838380828437600081840152601f19601f820116905080830192505050505050509192919290505050613029565b604051808215151515815260200191505060405180910390f35b348015610fe057600080fd5b5061100d60048036036020811015610ff757600080fd5b8101908080359060200190929190505050613340565b604051808273ffffffffffffffffffffffffffffffffffffffff1673ffffffffffffffffffffffffffffffffffffffff16815260200191505060405180910390f35b606060048054806020026020016040519081016040528092919081815260200182805480156110d357602002820191906000526020600020905b8160009054906101000a900473ffffffffffffffffffffffffffffffffffffffff1673ffffffffffffffffffffffffffffffffffffffff1681526020019060010190808311611089575b5050505050905090565b6002602052806000526040600020600091509050806000018054600181600116156101000203166002900480601f0160208091040260200160405190810160405280929190818152602001828054600181600116156101000203166002900480156111895780601f1061115e57610100808354040283529160200191611189565b820191906000526020600020905b81548152906001019060200180831161116c57829003601f168201915b505050505090806001018054600181600116156101000203166002900480601f0160208091040260200160405190810160405280929190818152602001828054600181600116156101000203166002900480156112275780601f106111fc57610100808354040283529160200191611227565b820191906000526020600020905b81548152906001019060200180831161120a57829003601f168201915b505050505090806002015490806003018054600181600116156101000203166002900480601f0160208091040260200160405190810160405280929190818152602001828054600181600116156101000203166002900480156112cb5780601f106112a0576101008083540402835291602001916112cb565b820191906000526020600020905b8154815290600101906020018083116112ae57829003601f168201915b5050505050908060040160009054906101000a900473ffffffffffffffffffffffffffffffffffffffff16905085565b60006020528060005260406000206000915054906101000a900460ff1681565b6060600380548060200260200160405190810160405280929190818152602001828054801561136957602002820191906000526020600020905b815481526020019060010190808311611355575b5050505050905090565b6001602052806000526040600020600091509050806000018054600181600116156101000203166002900480601f01602080910402602001604051908101604052809291908181526020018280546001816001161561010002031660029004801561141f5780601f106113f45761010080835404028352916020019161141f565b820191906000526020600020905b81548152906001019060200180831161140257829003601f168201915b505050505090806001018054600181600116156101000203166002900480601f0160208091040260200160405190810160405280929190818152602001828054600181600116156101000203166002900480156114bd5780601f10611492576101008083540402835291602001916114bd565b820191906000526020600020905b8154815290600101906020018083116114a057829003601f168201915b505050505090806002018054600181600116156101000203166002900480601f01602080910402602001604051908101604052809291908181526020018280546001816001161561010002031660029004801561155b5780601f106115305761010080835404028352916020019161155b565b820191906000526020600020905b81548152906001019060200180831161153e57829003601f168201915b5050505050908060030160009054906101000a900473ffffffffffffffffffffffffffffffffffffffff16905084565b600060a060405190810160405280858152602001848152602001838152602001600160003373ffffffffffffffffffffffffffffffffffffffff1673ffffffffffffffffffffffffffffffffffffffff168152602001908152602001600020600001600160003373ffffffffffffffffffffffffffffffffffffffff1673ffffffffffffffffffffffffffffffffffffffff168152602001908152602001600020600101604051602001808380546001816001161561010002031660029004801561168d5780601f1061166b57610100808354040283529182019161168d565b820191906000526020600020905b815481529060010190602001808311611679575b5050807f20000000000000000000000000000000000000000000000000000000000000008152506001018280546001816001161561010002031660029004801561170e5780601f106116ec57610100808354040283529182019161170e565b820191906000526020600020905b8154815290600101906020018083116116fa575b50509250505060405160208183030381529060405281526020013373ffffffffffffffffffffffffffffffffffffffff16815250600260006007548152602001908152602001600020600082015181600001908051906020019061177392919061337e565b50602082015181600101908051906020019061179092919061337e565b506040820151816002015560608201518160030190805190602001906117b792919061337e565b5060808201518160040160006101000a81548173ffffffffffffffffffffffffffffffffffffffff021916908373ffffffffffffffffffffffffffffffffffffffff1602179055509050507f21edf9224b62eb9a1b2afe9069818c0c4b09d2b91c65d6d7ec3042d875344c9c60075485600160003373ffffffffffffffffffffffffffffffffffffffff1673ffffffffffffffffffffffffffffffffffffffff168152602001908152602001600020600001600160003373ffffffffffffffffffffffffffffffffffffffff1673ffffffffffffffffffffffffffffffffffffffff16815260200190815260200160002060010160405160200180838054600181600116156101000203166002900480156119095780601f106118e7576101008083540402835291820191611909565b820191906000526020600020905b8154815290600101906020018083116118f5575b5050807f20000000000000000000000000000000000000000000000000000000000000008152506001018280546001816001161561010002031660029004801561198a5780601f1061196857610100808354040283529182019161198a565b820191906000526020600020905b815481529060010190602001808311611976575b505092505050604051602081830303815290604052336040518085815260200180602001806020018473ffffffffffffffffffffffffffffffffffffffff1673ffffffffffffffffffffffffffffffffffffffff168152602001838103835286818151815260200191508051906020019080838360005b83811015611a1c578082015181840152602081019050611a01565b50505050905090810190601f168015611a495780820380516001836020036101000a031916815260200191505b50838103825285818151815260200191508051906020019080838360005b83811015611a82578082015181840152602081019050611a67565b50505050905090810190601f168015611aaf5780820380516001836020036101000a031916815260200191505b50965050505050505060405180910390a160016007540160078190555060036007549080600181540180825580915050906001820390600052602060002001600090919290919091505550600190509392505050565b60006060806000606060008660026000898152602001908152602001600020600001600260008a8152602001908152602001600020600101600260008b815260200190815260200160002060020154600260008c8152602001908152602001600020600301600260008d815260200190815260200160002060040160009054906101000a900473ffffffffffffffffffffffffffffffffffffffff16848054600181600116156101000203166002900480601f016020809104026020016040519081016040528092919081815260200182805460018160011615610100020316600290048015611c365780601f10611c0b57610100808354040283529160200191611c36565b820191906000526020600020905b815481529060010190602001808311611c1957829003601f168201915b50505050509450838054600181600116156101000203166002900480601f016020809104026020016040519081016040528092919081815260200182805460018160011615610100020316600290048015611cd25780601f10611ca757610100808354040283529160200191611cd2565b820191906000526020600020905b815481529060010190602001808311611cb557829003601f168201915b50505050509350818054600181600116156101000203166002900480601f016020809104026020016040519081016040528092919081815260200182805460018160011615610100020316600290048015611d6e5780601f10611d4357610100808354040283529160200191611d6e565b820191906000526020600020905b815481529060010190602001808311611d5157829003601f168201915b5050505050915080905095509550955095509550955091939550919395565b60606005805480602002602001604051908101604052809291908181526020018280548015611e1157602002820191906000526020600020905b8160009054906101000a900473ffffffffffffffffffffffffffffffffffffffff1673ffffffffffffffffffffffffffffffffffffffff1681526020019060010190808311611dc7575b5050505050905090565b600481815481101515611e2a57fe5b906000526020600020016000915054906101000a900473ffffffffffffffffffffffffffffffffffffffff1681565b6000813373ffffffffffffffffffffffffffffffffffffffff166002600083815260200190815260200160002060040160009054906101000a900473ffffffffffffffffffffffffffffffffffffffff1673ffffffffffffffffffffffffffffffffffffffff1614151515611f36576040517f08c379a00000000000000000000000000000000000000000000000000000000081526004018080602001828103825260188152602001807f596f75206172652074686520706f737420617574686f722e000000000000000081525060200191505060405180910390fd5b3373ffffffffffffffffffffffffffffffffffffffff166002600085815260200190815260200160002060050160003373ffffffffffffffffffffffffffffffffffffffff1673ffffffffffffffffffffffffffffffffffffffff16815260200190815260200160002060030160009054906101000a900473ffffffffffffffffffffffffffffffffffffffff1673ffffffffffffffffffffffffffffffffffffffff1614151515612050576040517f08c379a000000000000000000000000000000000000000000000000000000000815260040180806020018281038252601a8152602001807f757365722068617320616c726561647920757020766f7465642e00000000000081525060200191505060405180910390fd5b600160003373ffffffffffffffffffffffffffffffffffffffff1673ffffffffffffffffffffffffffffffffffffffff1681526020019081526020016000206002600085815260200190815260200160002060050160003373ffffffffffffffffffffffffffffffffffffffff1673ffffffffffffffffffffffffffffffffffffffff168152602001908152602001600020600082018160000190805460018160011615610100020316600290046121099291906133fe565b50600182018160010190805460018160011615610100020316600290046121319291906133fe565b50600282018160020190805460018160011615610100020316600290046121599291906133fe565b506003820160009054906101000a900473ffffffffffffffffffffffffffffffffffffffff168160030160006101000a81548173ffffffffffffffffffffffffffffffffffffffff021916908373ffffffffffffffffffffffffffffffffffffffff160217905550905050600160026000858152602001908152602001600020600201540160026000858152602001908152602001600020600201819055507f98e1d91a2bc9a918d3d72633202ff90ec371f12c8a3e926e02f2e54e2fba580683600260008681526020019081526020016000206000016002600087815260200190815260200160002060020154600160003373ffffffffffffffffffffffffffffffffffffffff1673ffffffffffffffffffffffffffffffffffffffff168152602001908152602001600020600001600160003373ffffffffffffffffffffffffffffffffffffffff1673ffffffffffffffffffffffffffffffffffffffff16815260200190815260200160002060010160405160200180838054600181600116156101000203166002900480156123295780601f10612307576101008083540402835291820191612329565b820191906000526020600020905b815481529060010190602001808311612315575b5050807f2000000000000000000000000000000000000000000000000000000000000000815250600101828054600181600116156101000203166002900480156123aa5780601f106123885761010080835404028352918201916123aa565b820191906000526020600020905b815481529060010190602001808311612396575b505092505050604051602081830303815290604052336040518086815260200180602001858152602001806020018473ffffffffffffffffffffffffffffffffffffffff1673ffffffffffffffffffffffffffffffffffffffff16815260200183810383528781815460018160011615610100020316600290048152602001915080546001816001161561010002031660029004801561248b5780601f106124605761010080835404028352916020019161248b565b820191906000526020600020905b81548152906001019060200180831161246e57829003601f168201915b5050838103825285818151815260200191508051906020019080838360005b838110156124c55780820151818401526020810190506124aa565b50505050905090810190601f1680156124f25780820380516001836020036101000a031916815260200191505b5097505050505050505060405180910390a160043390806001815401808255809150509060018203906000526020600020016000909192909190916101000a81548173ffffffffffffffffffffffffffffffffffffffff021916908373ffffffffffffffffffffffffffffffffffffffff1602179055505033915050919050565b60058181548110151561258257fe5b906000526020600020016000915054906101000a900473ffffffffffffffffffffffffffffffffffffffff1681565b6000813373ffffffffffffffffffffffffffffffffffffffff166002600083815260200190815260200160002060040160009054906101000a900473ffffffffffffffffffffffffffffffffffffffff1673ffffffffffffffffffffffffffffffffffffffff161415151561268e576040517f08c379a00000000000000000000000000000000000000000000000000000000081526004018080602001828103825260188152602001807f596f75206172652074686520706f737420617574686f722e000000000000000081525060200191505060405180910390fd5b3373ffffffffffffffffffffffffffffffffffffffff166002600085815260200190815260200160002060060160003373ffffffffffffffffffffffffffffffffffffffff1673ffffffffffffffffffffffffffffffffffffffff16815260200190815260200160002060030160009054906101000a900473ffffffffffffffffffffffffffffffffffffffff1673ffffffffffffffffffffffffffffffffffffffff16141515156127a8576040517f08c379a000000000000000000000000000000000000000000000000000000000815260040180806020018281038252601a8152602001807f757365722068617320616c726561647920757020766f7465642e00000000000081525060200191505060405180910390fd5b600160003373ffffffffffffffffffffffffffffffffffffffff1673ffffffffffffffffffffffffffffffffffffffff1681526020019081526020016000206002600085815260200190815260200160002060050160003373ffffffffffffffffffffffffffffffffffffffff1673ffffffffffffffffffffffffffffffffffffffff168152602001908152602001600020600082018160000190805460018160011615610100020316600290046128619291906133fe565b50600182018160010190805460018160011615610100020316600290046128899291906133fe565b50600282018160020190805460018160011615610100020316600290046128b19291906133fe565b506003820160009054906101000a900473ffffffffffffffffffffffffffffffffffffffff168160030160006101000a81548173ffffffffffffffffffffffffffffffffffffffff021916908373ffffffffffffffffffffffffffffffffffffffff160217905550905050600160026000858152602001908152602001600020600201540360026000858152602001908152602001600020600201819055507f71f825e64e98d64528a0908df96a3ee568967b7f0c4a55b50add80659ecb5a9c83600260008681526020019081526020016000206000016002600087815260200190815260200160002060020154600160003373ffffffffffffffffffffffffffffffffffffffff1673ffffffffffffffffffffffffffffffffffffffff168152602001908152602001600020600001600160003373ffffffffffffffffffffffffffffffffffffffff1673ffffffffffffffffffffffffffffffffffffffff1681526020019081526020016000206001016040516020018083805460018160011615610100020316600290048015612a815780601f10612a5f576101008083540402835291820191612a81565b820191906000526020600020905b815481529060010190602001808311612a6d575b5050807f200000000000000000000000000000000000000000000000000000000000000081525060010182805460018160011615610100020316600290048015612b025780601f10612ae0576101008083540402835291820191612b02565b820191906000526020600020905b815481529060010190602001808311612aee575b505092505050604051602081830303815290604052336040518086815260200180602001858152602001806020018473ffffffffffffffffffffffffffffffffffffffff1673ffffffffffffffffffffffffffffffffffffffff168152602001838103835287818154600181600116156101000203166002900481526020019150805460018160011615610100020316600290048015612be35780601f10612bb857610100808354040283529160200191612be3565b820191906000526020600020905b815481529060010190602001808311612bc657829003601f168201915b5050838103825285818151815260200191508051906020019080838360005b83811015612c1d578082015181840152602081019050612c02565b50505050905090810190601f168015612c4a5780820380516001836020036101000a031916815260200191505b5097505050505050505060405180910390a160053390806001815401808255809150509060018203906000526020600020016000909192909190916101000a81548173ffffffffffffffffffffffffffffffffffffffff021916908373ffffffffffffffffffffffffffffffffffffffff1602179055505033915050919050565b60608060606000600160003373ffffffffffffffffffffffffffffffffffffffff1673ffffffffffffffffffffffffffffffffffffffff168152602001908152602001600020600001600160003373ffffffffffffffffffffffffffffffffffffffff1673ffffffffffffffffffffffffffffffffffffffff168152602001908152602001600020600101600160003373ffffffffffffffffffffffffffffffffffffffff1673ffffffffffffffffffffffffffffffffffffffff168152602001908152602001600020600201600160003373ffffffffffffffffffffffffffffffffffffffff1673ffffffffffffffffffffffffffffffffffffffff16815260200190815260200160002060030160009054906101000a900473ffffffffffffffffffffffffffffffffffffffff16838054600181600116156101000203166002900480601f016020809104026020016040519081016040528092919081815260200182805460018160011615610100020316600290048015612e905780601f10612e6557610100808354040283529160200191612e90565b820191906000526020600020905b815481529060010190602001808311612e7357829003601f168201915b50505050509350828054600181600116156101000203166002900480601f016020809104026020016040519081016040528092919081815260200182805460018160011615610100020316600290048015612f2c5780601f10612f0157610100808354040283529160200191612f2c565b820191906000526020600020905b815481529060010190602001808311612f0f57829003601f168201915b50505050509250818054600181600116156101000203166002900480601f016020809104026020016040519081016040528092919081815260200182805460018160011615610100020316600290048015612fc85780601f10612f9d57610100808354040283529160200191612fc8565b820191906000526020600020905b815481529060010190602001808311612fab57829003601f168201915b50505050509150809050935093509350935090919293565b600960009054906101000a900473ffffffffffffffffffffffffffffffffffffffff1681565b60038181548110151561301557fe5b906000526020600020016000915090505481565b6000600115156000803373ffffffffffffffffffffffffffffffffffffffff1673ffffffffffffffffffffffffffffffffffffffff16815260200190815260200160002060009054906101000a900460ff16151514151515613119576040517f08c379a000000000000000000000000000000000000000000000000000000000815260040180806020018281038252602b8152602001807f596f752061726520616c726561647920656e726f6c6c6564207769746820746881526020017f697320616464726573732e00000000000000000000000000000000000000000081525060400191505060405180910390fd5b60016000803373ffffffffffffffffffffffffffffffffffffffff1673ffffffffffffffffffffffffffffffffffffffff16815260200190815260200160002060006101000a81548160ff0219169083151502179055506080604051908101604052808581526020018481526020018381526020013373ffffffffffffffffffffffffffffffffffffffff16815250600160003373ffffffffffffffffffffffffffffffffffffffff1673ffffffffffffffffffffffffffffffffffffffff168152602001908152602001600020600082015181600001908051906020019061320392919061337e565b50602082015181600101908051906020019061322092919061337e565b50604082015181600201908051906020019061323d92919061337e565b5060608201518160030160006101000a81548173ffffffffffffffffffffffffffffffffffffffff021916908373ffffffffffffffffffffffffffffffffffffffff1602179055509050507f990c442e6adb818b8fa7db3cf1023decd07f7b66e5306928c7ed527d974192bb33604051808273ffffffffffffffffffffffffffffffffffffffff1673ffffffffffffffffffffffffffffffffffffffff16815260200191505060405180910390a16000803373ffffffffffffffffffffffffffffffffffffffff1673ffffffffffffffffffffffffffffffffffffffff16815260200190815260200160002060009054906101000a900460ff1690509392505050565b60068181548110151561334f57fe5b906000526020600020016000915054906101000a900473ffffffffffffffffffffffffffffffffffffffff1681565b828054600181600116156101000203166002900490600052602060002090601f016020900481019282601f106133bf57805160ff19168380011785556133ed565b828001600101855582156133ed579182015b828111156133ec5782518255916020019190600101906133d1565b5b5090506133fa9190613485565b5090565b828054600181600116156101000203166002900490600052602060002090601f016020900481019282601f106134375780548555613474565b8280016001018555821561347457600052602060002091601f016020900482015b82811115613473578254825591600101919060010190613458565b5b5090506134819190613485565b5090565b6134a791905b808211156134a357600081600090555060010161348b565b5090565b9056fea165627a7a7230582081b0ba3fec29415cc727efc0754be0eb77a8d6d7910e0c97d36d5ec535cd99ee0029",
  "source": "pragma solidity ^0.5.0;\n\n\ncontract PostIt {\n\n  mapping (address => bool) public enrolled;\n  mapping (address => User) public userProfiles;\n  mapping (uint256 => Post) public posts;\n\n  uint256[] public postsIndexes;\n  address[] public upVotersIndexes;\n  address[] public downVotersIndexes;\n  address[] public commentsIndexes;\n\n  struct User {\n    string firstName;\n    string lastName;\n    string email;\n    address payable accountAddress;\n  }\n\n  struct Post {\n    string title;\n    string content;\n    uint votes;\n    string author;\n    address payable accountAddress;\n    mapping (address => User) upVoters;\n    mapping (address => User) downVoters;\n    mapping (address => User) comments;\n  }\n\n  struct Comment {\n    string response;\n    mapping (address => User) comments;\n  }\n\n  uint256 postId;\n  uint256 userId;\n  address public owner;\n\n  event LogEnrolled(address accountAddress);\n  event LogNewPostAdded(uint postId, string title, string fullName, address accountAddress);\n  event LogUpVote(uint postId, string title, uint votes, string fullName, address accountAddress);\n  event LogDownVote(uint postId, string title, uint votes, string fullName, address accountAddress);\n\n  modifier onlyOwner () { require (msg.sender == owner, \"You are not the owner.\"); _;}\n  modifier notPostAuthor (uint256 _postId) { require (posts[_postId].accountAddress != msg.sender, \"You are the post author.\"); _;}\n  modifier notEnrolled () { require (enrolled[msg.sender] != true, \"You are already enrolled with this address.\"); _;}\n\n  constructor() public {\n    owner = msg.sender;\n    postId = 1;\n  }\n\n  //Add a check to make sure the address is not bound aleady\n  function enroll(string memory firstName, string memory lastName, string memory email) notEnrolled() public returns (bool) {\n    enrolled[msg.sender] = true;\n    userProfiles[msg.sender] = User({firstName: firstName, lastName: lastName, email: email, accountAddress: msg.sender});\n    emit LogEnrolled(msg.sender);\n    return enrolled[msg.sender];\n  }\n\n  function getUserProfile() public view returns (string memory, string memory, string memory, address) {\n    return (userProfiles[msg.sender].firstName, userProfiles[msg.sender].lastName, userProfiles[msg.sender].email, userProfiles[msg.sender].accountAddress);\n  }\n\n  function addPostIt(string memory title, string memory content, uint vote) public returns(bool) {\n    posts[postId] = Post({title: title, content: content, votes: vote, author: string(abi.encodePacked(userProfiles[msg.sender].firstName, \" \", userProfiles[msg.sender].lastName)),  accountAddress: msg.sender});\n    emit LogNewPostAdded(postId, title, string(abi.encodePacked(userProfiles[msg.sender].firstName, \" \", userProfiles[msg.sender].lastName)), msg.sender);\n    postId = postId + 1;\n    postsIndexes.push(postId);\n    return true;\n  }\n\n  function getPost(uint256 _postId) public view returns(uint256, string memory, string memory, uint, string memory, address) {\n    return(_postId, posts[_postId].title, posts[_postId].content, posts[_postId].votes, posts[_postId].author, posts[_postId].accountAddress);\n  }\n\n  function makeUpVote(uint256 _postId) notPostAuthor(_postId) public returns(address) {\n    require(posts[_postId].upVoters[msg.sender].accountAddress != msg.sender, \"user has already up voted.\");\n    posts[_postId].upVoters[msg.sender] = userProfiles[msg.sender];\n    posts[_postId].votes = posts[_postId].votes + 1;\n    emit LogUpVote(_postId, posts[_postId].title, posts[_postId].votes, string(abi.encodePacked(userProfiles[msg.sender].firstName, \" \", userProfiles[msg.sender].lastName)), msg.sender);\n    upVotersIndexes.push(msg.sender);\n    return msg.sender;\n  }\n\n  function makeDownVote(uint256 _postId) notPostAuthor(_postId) public returns(address) {\n    require(posts[_postId].downVoters[msg.sender].accountAddress != msg.sender, \"user has already up voted.\");\n    posts[_postId].upVoters[msg.sender] = userProfiles[msg.sender];\n    posts[_postId].votes = posts[_postId].votes - 1;\n    emit LogDownVote(_postId, posts[_postId].title, posts[_postId].votes, string(abi.encodePacked(userProfiles[msg.sender].firstName, \" \", userProfiles[msg.sender].lastName)), msg.sender);\n    downVotersIndexes.push(msg.sender);\n    return msg.sender;\n  }\n\n  function getAllPosts() external view returns(uint256[] memory) {\n    return postsIndexes;\n  }\n\n  function getAllUpVoters() external view returns(address[] memory) {\n    return upVotersIndexes;\n  }\n\n  function getAllDownVoters() external view returns(address[] memory) {\n    return downVotersIndexes;\n  }\n\n  function() external {\n    revert();\n  }\n}\n",
  "sourcePath": "/Users/rvansant/Sites/consensys-projects/final-project-partofthecollective/contracts/PostIt.sol",
  "compiler": {
    "name": "solc",
    "version": "0.5.0+commit.1d4f565a.Emscripten.clang"
  },
  "schemaVersion": "3.0.0",
  "updatedAt": "2019-01-21T01:53:37.707Z",
  "devdoc": {
    "methods": {}
  },
  "userdoc": {
    "methods": {}
  }
}