{
  "contractName": "PostIt",
  "abi": [
    {
      "constant": true,
      "inputs": [
        {
          "name": "",
          "type": "uint256"
        }
      ],
      "name": "posts",
      "outputs": [
        {
          "name": "title",
          "type": "string"
        },
        {
          "name": "content",
          "type": "string"
        },
        {
          "name": "votes",
          "type": "uint256"
        },
        {
          "name": "author",
          "type": "string"
        },
        {
          "name": "accountAddress",
          "type": "address"
        }
      ],
      "payable": false,
      "stateMutability": "view",
      "type": "function",
      "signature": "0x0b1e7f83"
    },
    {
      "constant": true,
      "inputs": [
        {
          "name": "",
          "type": "address"
        }
      ],
      "name": "enrolled",
      "outputs": [
        {
          "name": "",
          "type": "bool"
        }
      ],
      "payable": false,
      "stateMutability": "view",
      "type": "function",
      "signature": "0x10eb0e0e"
    },
    {
      "constant": true,
      "inputs": [
        {
          "name": "",
          "type": "address"
        }
      ],
      "name": "userProfiles",
      "outputs": [
        {
          "name": "firstName",
          "type": "string"
        },
        {
          "name": "lastName",
          "type": "string"
        },
        {
          "name": "email",
          "type": "string"
        },
        {
          "name": "accountAddress",
          "type": "address"
        }
      ],
      "payable": false,
      "stateMutability": "view",
      "type": "function",
      "signature": "0x332d56d7"
    },
    {
      "constant": true,
      "inputs": [
        {
          "name": "",
          "type": "uint256"
        }
      ],
      "name": "upVotersIndexes",
      "outputs": [
        {
          "name": "",
          "type": "address"
        }
      ],
      "payable": false,
      "stateMutability": "view",
      "type": "function",
      "signature": "0x465e19e4"
    },
    {
      "constant": true,
      "inputs": [
        {
          "name": "",
          "type": "uint256"
        }
      ],
      "name": "downVotersIndexes",
      "outputs": [
        {
          "name": "",
          "type": "address"
        }
      ],
      "payable": false,
      "stateMutability": "view",
      "type": "function",
      "signature": "0x4c520179"
    },
    {
      "constant": true,
      "inputs": [],
      "name": "owner",
      "outputs": [
        {
          "name": "",
          "type": "address"
        }
      ],
      "payable": false,
      "stateMutability": "view",
      "type": "function",
      "signature": "0x8da5cb5b"
    },
    {
      "constant": true,
      "inputs": [
        {
          "name": "",
          "type": "uint256"
        }
      ],
      "name": "postsIndexes",
      "outputs": [
        {
          "name": "",
          "type": "uint256"
        }
      ],
      "payable": false,
      "stateMutability": "view",
      "type": "function",
      "signature": "0xcf1514df"
    },
    {
      "constant": true,
      "inputs": [
        {
          "name": "",
          "type": "uint256"
        }
      ],
      "name": "commentsIndexes",
      "outputs": [
        {
          "name": "",
          "type": "uint256"
        }
      ],
      "payable": false,
      "stateMutability": "view",
      "type": "function",
      "signature": "0xe57835db"
    },
    {
      "inputs": [],
      "payable": false,
      "stateMutability": "nonpayable",
      "type": "constructor",
      "signature": "constructor"
    },
    {
      "payable": false,
      "stateMutability": "nonpayable",
      "type": "fallback"
    },
    {
      "anonymous": false,
      "inputs": [
        {
          "indexed": false,
          "name": "accountAddress",
          "type": "address"
        }
      ],
      "name": "LogEnrolled",
      "type": "event",
      "signature": "0x990c442e6adb818b8fa7db3cf1023decd07f7b66e5306928c7ed527d974192bb"
    },
    {
      "anonymous": false,
      "inputs": [
        {
          "indexed": false,
          "name": "postId",
          "type": "uint256"
        },
        {
          "indexed": false,
          "name": "title",
          "type": "string"
        },
        {
          "indexed": false,
          "name": "fullName",
          "type": "string"
        },
        {
          "indexed": false,
          "name": "accountAddress",
          "type": "address"
        }
      ],
      "name": "LogNewPostAdded",
      "type": "event",
      "signature": "0x21edf9224b62eb9a1b2afe9069818c0c4b09d2b91c65d6d7ec3042d875344c9c"
    },
    {
      "anonymous": false,
      "inputs": [
        {
          "indexed": false,
          "name": "postId",
          "type": "uint256"
        },
        {
          "indexed": false,
          "name": "title",
          "type": "string"
        },
        {
          "indexed": false,
          "name": "votes",
          "type": "uint256"
        },
        {
          "indexed": false,
          "name": "fullName",
          "type": "string"
        },
        {
          "indexed": false,
          "name": "accountAddress",
          "type": "address"
        }
      ],
      "name": "LogUpVote",
      "type": "event",
      "signature": "0x98e1d91a2bc9a918d3d72633202ff90ec371f12c8a3e926e02f2e54e2fba5806"
    },
    {
      "anonymous": false,
      "inputs": [
        {
          "indexed": false,
          "name": "postId",
          "type": "uint256"
        },
        {
          "indexed": false,
          "name": "title",
          "type": "string"
        },
        {
          "indexed": false,
          "name": "votes",
          "type": "uint256"
        },
        {
          "indexed": false,
          "name": "fullName",
          "type": "string"
        },
        {
          "indexed": false,
          "name": "accountAddress",
          "type": "address"
        }
      ],
      "name": "LogDownVote",
      "type": "event",
      "signature": "0x71f825e64e98d64528a0908df96a3ee568967b7f0c4a55b50add80659ecb5a9c"
    },
    {
      "anonymous": false,
      "inputs": [
        {
          "indexed": false,
          "name": "postId",
          "type": "uint256"
        },
        {
          "indexed": false,
          "name": "commentId",
          "type": "uint256"
        },
        {
          "indexed": false,
          "name": "commentBody",
          "type": "string"
        },
        {
          "indexed": false,
          "name": "fullName",
          "type": "string"
        },
        {
          "indexed": false,
          "name": "accountAddress",
          "type": "address"
        }
      ],
      "name": "LogComment",
      "type": "event",
      "signature": "0x9e3e7915e9a8ff8e158fb064e7ab8986de028abafda9a8cf2087cedd341b57fa"
    },
    {
      "constant": false,
      "inputs": [
        {
          "name": "firstName",
          "type": "string"
        },
        {
          "name": "lastName",
          "type": "string"
        },
        {
          "name": "email",
          "type": "string"
        }
      ],
      "name": "enroll",
      "outputs": [
        {
          "name": "",
          "type": "bool"
        }
      ],
      "payable": false,
      "stateMutability": "nonpayable",
      "type": "function",
      "signature": "0xd09a169c"
    },
    {
      "constant": true,
      "inputs": [],
      "name": "getUserProfile",
      "outputs": [
        {
          "name": "",
          "type": "string"
        },
        {
          "name": "",
          "type": "string"
        },
        {
          "name": "",
          "type": "string"
        },
        {
          "name": "",
          "type": "address"
        }
      ],
      "payable": false,
      "stateMutability": "view",
      "type": "function",
      "signature": "0x6f61c744"
    },
    {
      "constant": false,
      "inputs": [
        {
          "name": "title",
          "type": "string"
        },
        {
          "name": "content",
          "type": "string"
        },
        {
          "name": "vote",
          "type": "uint256"
        }
      ],
      "name": "addPostIt",
      "outputs": [
        {
          "name": "",
          "type": "bool"
        }
      ],
      "payable": false,
      "stateMutability": "nonpayable",
      "type": "function",
      "signature": "0x389950ae"
    },
    {
      "constant": true,
      "inputs": [
        {
          "name": "_postId",
          "type": "uint256"
        }
      ],
      "name": "getPost",
      "outputs": [
        {
          "name": "",
          "type": "uint256"
        },
        {
          "name": "",
          "type": "string"
        },
        {
          "name": "",
          "type": "string"
        },
        {
          "name": "",
          "type": "uint256"
        },
        {
          "name": "",
          "type": "string"
        },
        {
          "name": "",
          "type": "address"
        }
      ],
      "payable": false,
      "stateMutability": "view",
      "type": "function",
      "signature": "0x40731c24"
    },
    {
      "constant": false,
      "inputs": [
        {
          "name": "_postId",
          "type": "uint256"
        }
      ],
      "name": "makeUpVote",
      "outputs": [
        {
          "name": "",
          "type": "address"
        }
      ],
      "payable": false,
      "stateMutability": "nonpayable",
      "type": "function",
      "signature": "0x492faa07"
    },
    {
      "constant": false,
      "inputs": [
        {
          "name": "_postId",
          "type": "uint256"
        }
      ],
      "name": "makeDownVote",
      "outputs": [
        {
          "name": "",
          "type": "address"
        }
      ],
      "payable": false,
      "stateMutability": "nonpayable",
      "type": "function",
      "signature": "0x5845293d"
    },
    {
      "constant": false,
      "inputs": [
        {
          "name": "_postId",
          "type": "uint256"
        },
        {
          "name": "commentBody",
          "type": "string"
        }
      ],
      "name": "addComment",
      "outputs": [
        {
          "name": "",
          "type": "bool"
        }
      ],
      "payable": false,
      "stateMutability": "nonpayable",
      "type": "function",
      "signature": "0xaa7e5683"
    },
    {
      "constant": true,
      "inputs": [],
      "name": "getAllPosts",
      "outputs": [
        {
          "name": "",
          "type": "uint256[]"
        }
      ],
      "payable": false,
      "stateMutability": "view",
      "type": "function",
      "signature": "0x30561100"
    },
    {
      "constant": true,
      "inputs": [],
      "name": "getAllUpVoters",
      "outputs": [
        {
          "name": "",
          "type": "address[]"
        }
      ],
      "payable": false,
      "stateMutability": "view",
      "type": "function",
      "signature": "0x05c54609"
    },
    {
      "constant": true,
      "inputs": [],
      "name": "getAllDownVoters",
      "outputs": [
        {
          "name": "",
          "type": "address[]"
        }
      ],
      "payable": false,
      "stateMutability": "view",
      "type": "function",
      "signature": "0x41671ef9"
    },
    {
      "constant": true,
      "inputs": [],
      "name": "getAllComments",
      "outputs": [
        {
          "name": "",
          "type": "uint256[]"
        }
      ],
      "payable": false,
      "stateMutability": "view",
      "type": "function",
      "signature": "0x10440904"
    }
  ],
  "bytecode": "0x608060405234801561001057600080fd5b5033600960006101000a81548173ffffffffffffffffffffffffffffffffffffffff021916908373ffffffffffffffffffffffffffffffffffffffff16021790555060016007819055506001600881905550613b57806100716000396000f3fe608060405260043610610107576000357c0100000000000000000000000000000000000000000000000000000000900463ffffffff16806305c54609146101195780630b1e7f8314610185578063104409041461034b57806310eb0e0e146103b75780633056110014610420578063332d56d71461048c578063389950ae1461066157806340731c24146107e257806341671ef9146109af578063465e19e414610a1b578063492faa0714610a965780634c52017914610b115780635845293d14610b8c5780636f61c74414610c075780638da5cb5b14610da2578063aa7e568314610df9578063cf1514df14610ee3578063d09a169c14610f32578063e57835db14611140575b34801561011357600080fd5b50600080fd5b34801561012557600080fd5b5061012e61118f565b6040518080602001828103825283818151815260200191508051906020019060200280838360005b83811015610171578082015181840152602081019050610156565b505050509050019250505060405180910390f35b34801561019157600080fd5b506101be600480360360208110156101a857600080fd5b810190808035906020019092919050505061121d565b604051808060200180602001868152602001806020018573ffffffffffffffffffffffffffffffffffffffff1673ffffffffffffffffffffffffffffffffffffffff168152602001848103845289818151815260200191508051906020019080838360005b8381101561023e578082015181840152602081019050610223565b50505050905090810190601f16801561026b5780820380516001836020036101000a031916815260200191505b50848103835288818151815260200191508051906020019080838360005b838110156102a4578082015181840152602081019050610289565b50505050905090810190601f1680156102d15780820380516001836020036101000a031916815260200191505b50848103825286818151815260200191508051906020019080838360005b8381101561030a5780820151818401526020810190506102ef565b50505050905090810190601f1680156103375780820380516001836020036101000a031916815260200191505b509850505050505050505060405180910390f35b34801561035757600080fd5b5061036061143b565b6040518080602001828103825283818151815260200191508051906020019060200280838360005b838110156103a3578082015181840152602081019050610388565b505050509050019250505060405180910390f35b3480156103c357600080fd5b50610406600480360360208110156103da57600080fd5b81019080803573ffffffffffffffffffffffffffffffffffffffff169060200190929190505050611493565b604051808215151515815260200191505060405180910390f35b34801561042c57600080fd5b506104356114b3565b6040518080602001828103825283818151815260200191508051906020019060200280838360005b8381101561047857808201518184015260208101905061045d565b505050509050019250505060405180910390f35b34801561049857600080fd5b506104db600480360360208110156104af57600080fd5b81019080803573ffffffffffffffffffffffffffffffffffffffff16906020019092919050505061150b565b604051808060200180602001806020018573ffffffffffffffffffffffffffffffffffffffff1673ffffffffffffffffffffffffffffffffffffffff168152602001848103845288818151815260200191508051906020019080838360005b8381101561055557808201518184015260208101905061053a565b50505050905090810190601f1680156105825780820380516001836020036101000a031916815260200191505b50848103835287818151815260200191508051906020019080838360005b838110156105bb5780820151818401526020810190506105a0565b50505050905090810190601f1680156105e85780820380516001836020036101000a031916815260200191505b50848103825286818151815260200191508051906020019080838360005b83811015610621578082015181840152602081019050610606565b50505050905090810190601f16801561064e5780820380516001836020036101000a031916815260200191505b5097505050505050505060405180910390f35b34801561066d57600080fd5b506107c86004803603606081101561068457600080fd5b81019080803590602001906401000000008111156106a157600080fd5b8201836020820111156106b357600080fd5b803590602001918460018302840111640100000000831117156106d557600080fd5b91908080601f016020809104026020016040519081016040528093929190818152602001838380828437600081840152601f19601f8201169050808301925050505050505091929192908035906020019064010000000081111561073857600080fd5b82018360208201111561074a57600080fd5b8035906020019184600183028401116401000000008311171561076c57600080fd5b91908080601f016020809104026020016040519081016040528093929190818152602001838380828437600081840152601f19601f82011690508083019250505050505050919291929080359060200190929190505050611723565b604051808215151515815260200191505060405180910390f35b3480156107ee57600080fd5b5061081b6004803603602081101561080557600080fd5b8101908080359060200190929190505050611c9d565b604051808781526020018060200180602001868152602001806020018573ffffffffffffffffffffffffffffffffffffffff1673ffffffffffffffffffffffffffffffffffffffff168152602001848103845289818151815260200191508051906020019080838360005b838110156108a1578082015181840152602081019050610886565b50505050905090810190601f1680156108ce5780820380516001836020036101000a031916815260200191505b50848103835288818151815260200191508051906020019080838360005b838110156109075780820151818401526020810190506108ec565b50505050905090810190601f1680156109345780820380516001836020036101000a031916815260200191505b50848103825286818151815260200191508051906020019080838360005b8381101561096d578082015181840152602081019050610952565b50505050905090810190601f16801561099a5780820380516001836020036101000a031916815260200191505b50995050505050505050505060405180910390f35b3480156109bb57600080fd5b506109c4611f25565b6040518080602001828103825283818151815260200191508051906020019060200280838360005b83811015610a075780820151818401526020810190506109ec565b505050509050019250505060405180910390f35b348015610a2757600080fd5b50610a5460048036036020811015610a3e57600080fd5b8101908080359060200190929190505050611fb3565b604051808273ffffffffffffffffffffffffffffffffffffffff1673ffffffffffffffffffffffffffffffffffffffff16815260200191505060405180910390f35b348015610aa257600080fd5b50610acf60048036036020811015610ab957600080fd5b8101908080359060200190929190505050611ff1565b604051808273ffffffffffffffffffffffffffffffffffffffff1673ffffffffffffffffffffffffffffffffffffffff16815260200191505060405180910390f35b348015610b1d57600080fd5b50610b4a60048036036020811015610b3457600080fd5b810190808035906020019092919050505061270b565b604051808273ffffffffffffffffffffffffffffffffffffffff1673ffffffffffffffffffffffffffffffffffffffff16815260200191505060405180910390f35b348015610b9857600080fd5b50610bc560048036036020811015610baf57600080fd5b8101908080359060200190929190505050612749565b604051808273ffffffffffffffffffffffffffffffffffffffff1673ffffffffffffffffffffffffffffffffffffffff16815260200191505060405180910390f35b348015610c1357600080fd5b50610c1c612e63565b604051808060200180602001806020018573ffffffffffffffffffffffffffffffffffffffff1673ffffffffffffffffffffffffffffffffffffffff168152602001848103845288818151815260200191508051906020019080838360005b83811015610c96578082015181840152602081019050610c7b565b50505050905090810190601f168015610cc35780820380516001836020036101000a031916815260200191505b50848103835287818151815260200191508051906020019080838360005b83811015610cfc578082015181840152602081019050610ce1565b50505050905090810190601f168015610d295780820380516001836020036101000a031916815260200191505b50848103825286818151815260200191508051906020019080838360005b83811015610d62578082015181840152602081019050610d47565b50505050905090810190601f168015610d8f5780820380516001836020036101000a031916815260200191505b5097505050505050505060405180910390f35b348015610dae57600080fd5b50610db7613178565b604051808273ffffffffffffffffffffffffffffffffffffffff1673ffffffffffffffffffffffffffffffffffffffff16815260200191505060405180910390f35b348015610e0557600080fd5b50610ec960048036036040811015610e1c57600080fd5b810190808035906020019092919080359060200190640100000000811115610e4357600080fd5b820183602082011115610e5557600080fd5b80359060200191846001830284011164010000000083111715610e7757600080fd5b91908080601f016020809104026020016040519081016040528093929190818152602001838380828437600081840152601f19601f82011690508083019250505050505050919291929050505061319e565b604051808215151515815260200191505060405180910390f35b348015610eef57600080fd5b50610f1c60048036036020811015610f0657600080fd5b81019080803590602001909291905050506136a2565b6040518082815260200191505060405180910390f35b348015610f3e57600080fd5b5061112660048036036060811015610f5557600080fd5b8101908080359060200190640100000000811115610f7257600080fd5b820183602082011115610f8457600080fd5b80359060200191846001830284011164010000000083111715610fa657600080fd5b91908080601f016020809104026020016040519081016040528093929190818152602001838380828437600081840152601f19601f8201169050808301925050505050505091929192908035906020019064010000000081111561100957600080fd5b82018360208201111561101b57600080fd5b8035906020019184600183028401116401000000008311171561103d57600080fd5b91908080601f016020809104026020016040519081016040528093929190818152602001838380828437600081840152601f19601f820116905080830192505050505050509192919290803590602001906401000000008111156110a057600080fd5b8201836020820111156110b257600080fd5b803590602001918460018302840111640100000000831117156110d457600080fd5b91908080601f016020809104026020016040519081016040528093929190818152602001838380828437600081840152601f19601f8201169050808301925050505050505091929192905050506136c5565b604051808215151515815260200191505060405180910390f35b34801561114c57600080fd5b506111796004803603602081101561116357600080fd5b81019080803590602001909291905050506139dc565b6040518082815260200191505060405180910390f35b6060600480548060200260200160405190810160405280929190818152602001828054801561121357602002820191906000526020600020905b8160009054906101000a900473ffffffffffffffffffffffffffffffffffffffff1673ffffffffffffffffffffffffffffffffffffffff16815260200190600101908083116111c9575b5050505050905090565b6002602052806000526040600020600091509050806000018054600181600116156101000203166002900480601f0160208091040260200160405190810160405280929190818152602001828054600181600116156101000203166002900480156112c95780601f1061129e576101008083540402835291602001916112c9565b820191906000526020600020905b8154815290600101906020018083116112ac57829003601f168201915b505050505090806001018054600181600116156101000203166002900480601f0160208091040260200160405190810160405280929190818152602001828054600181600116156101000203166002900480156113675780601f1061133c57610100808354040283529160200191611367565b820191906000526020600020905b81548152906001019060200180831161134a57829003601f168201915b505050505090806002015490806003018054600181600116156101000203166002900480601f01602080910402602001604051908101604052809291908181526020018280546001816001161561010002031660029004801561140b5780601f106113e05761010080835404028352916020019161140b565b820191906000526020600020905b8154815290600101906020018083116113ee57829003601f168201915b5050505050908060040160009054906101000a900473ffffffffffffffffffffffffffffffffffffffff16905085565b6060600680548060200260200160405190810160405280929190818152602001828054801561148957602002820191906000526020600020905b815481526020019060010190808311611475575b5050505050905090565b60006020528060005260406000206000915054906101000a900460ff1681565b6060600380548060200260200160405190810160405280929190818152602001828054801561150157602002820191906000526020600020905b8154815260200190600101908083116114ed575b5050505050905090565b6001602052806000526040600020600091509050806000018054600181600116156101000203166002900480601f0160208091040260200160405190810160405280929190818152602001828054600181600116156101000203166002900480156115b75780601f1061158c576101008083540402835291602001916115b7565b820191906000526020600020905b81548152906001019060200180831161159a57829003601f168201915b505050505090806001018054600181600116156101000203166002900480601f0160208091040260200160405190810160405280929190818152602001828054600181600116156101000203166002900480156116555780601f1061162a57610100808354040283529160200191611655565b820191906000526020600020905b81548152906001019060200180831161163857829003601f168201915b505050505090806002018054600181600116156101000203166002900480601f0160208091040260200160405190810160405280929190818152602001828054600181600116156101000203166002900480156116f35780601f106116c8576101008083540402835291602001916116f3565b820191906000526020600020905b8154815290600101906020018083116116d657829003601f168201915b5050505050908060030160009054906101000a900473ffffffffffffffffffffffffffffffffffffffff16905084565b600060a060405190810160405280858152602001848152602001838152602001600160003373ffffffffffffffffffffffffffffffffffffffff1673ffffffffffffffffffffffffffffffffffffffff168152602001908152602001600020600001600160003373ffffffffffffffffffffffffffffffffffffffff1673ffffffffffffffffffffffffffffffffffffffff16815260200190815260200160002060010160405160200180838054600181600116156101000203166002900480156118255780601f10611803576101008083540402835291820191611825565b820191906000526020600020905b815481529060010190602001808311611811575b5050807f2000000000000000000000000000000000000000000000000000000000000000815250600101828054600181600116156101000203166002900480156118a65780601f106118845761010080835404028352918201916118a6565b820191906000526020600020905b815481529060010190602001808311611892575b50509250505060405160208183030381529060405281526020013373ffffffffffffffffffffffffffffffffffffffff16815250600260006007548152602001908152602001600020600082015181600001908051906020019061190b9291906139ff565b5060208201518160010190805190602001906119289291906139ff565b5060408201518160020155606082015181600301908051906020019061194f9291906139ff565b5060808201518160040160006101000a81548173ffffffffffffffffffffffffffffffffffffffff021916908373ffffffffffffffffffffffffffffffffffffffff1602179055509050507f21edf9224b62eb9a1b2afe9069818c0c4b09d2b91c65d6d7ec3042d875344c9c60075485600160003373ffffffffffffffffffffffffffffffffffffffff1673ffffffffffffffffffffffffffffffffffffffff168152602001908152602001600020600001600160003373ffffffffffffffffffffffffffffffffffffffff1673ffffffffffffffffffffffffffffffffffffffff1681526020019081526020016000206001016040516020018083805460018160011615610100020316600290048015611aa15780601f10611a7f576101008083540402835291820191611aa1565b820191906000526020600020905b815481529060010190602001808311611a8d575b5050807f200000000000000000000000000000000000000000000000000000000000000081525060010182805460018160011615610100020316600290048015611b225780601f10611b00576101008083540402835291820191611b22565b820191906000526020600020905b815481529060010190602001808311611b0e575b505092505050604051602081830303815290604052336040518085815260200180602001806020018473ffffffffffffffffffffffffffffffffffffffff1673ffffffffffffffffffffffffffffffffffffffff168152602001838103835286818151815260200191508051906020019080838360005b83811015611bb4578082015181840152602081019050611b99565b50505050905090810190601f168015611be15780820380516001836020036101000a031916815260200191505b50838103825285818151815260200191508051906020019080838360005b83811015611c1a578082015181840152602081019050611bff565b50505050905090810190601f168015611c475780820380516001836020036101000a031916815260200191505b50965050505050505060405180910390a160036007549080600181540180825580915050906001820390600052602060002001600090919290919091505550600160075401600781905550600190509392505050565b60006060806000606060008660026000898152602001908152602001600020600001600260008a8152602001908152602001600020600101600260008b815260200190815260200160002060020154600260008c8152602001908152602001600020600301600260008d815260200190815260200160002060040160009054906101000a900473ffffffffffffffffffffffffffffffffffffffff16848054600181600116156101000203166002900480601f016020809104026020016040519081016040528092919081815260200182805460018160011615610100020316600290048015611dce5780601f10611da357610100808354040283529160200191611dce565b820191906000526020600020905b815481529060010190602001808311611db157829003601f168201915b50505050509450838054600181600116156101000203166002900480601f016020809104026020016040519081016040528092919081815260200182805460018160011615610100020316600290048015611e6a5780601f10611e3f57610100808354040283529160200191611e6a565b820191906000526020600020905b815481529060010190602001808311611e4d57829003601f168201915b50505050509350818054600181600116156101000203166002900480601f016020809104026020016040519081016040528092919081815260200182805460018160011615610100020316600290048015611f065780601f10611edb57610100808354040283529160200191611f06565b820191906000526020600020905b815481529060010190602001808311611ee957829003601f168201915b5050505050915080905095509550955095509550955091939550919395565b60606005805480602002602001604051908101604052809291908181526020018280548015611fa957602002820191906000526020600020905b8160009054906101000a900473ffffffffffffffffffffffffffffffffffffffff1673ffffffffffffffffffffffffffffffffffffffff1681526020019060010190808311611f5f575b5050505050905090565b600481815481101515611fc257fe5b906000526020600020016000915054906101000a900473ffffffffffffffffffffffffffffffffffffffff1681565b6000813373ffffffffffffffffffffffffffffffffffffffff166002600083815260200190815260200160002060040160009054906101000a900473ffffffffffffffffffffffffffffffffffffffff1673ffffffffffffffffffffffffffffffffffffffff16141515156120ce576040517f08c379a00000000000000000000000000000000000000000000000000000000081526004018080602001828103825260188152602001807f596f75206172652074686520706f737420617574686f722e000000000000000081525060200191505060405180910390fd5b3373ffffffffffffffffffffffffffffffffffffffff166002600085815260200190815260200160002060050160003373ffffffffffffffffffffffffffffffffffffffff1673ffffffffffffffffffffffffffffffffffffffff16815260200190815260200160002060030160009054906101000a900473ffffffffffffffffffffffffffffffffffffffff1673ffffffffffffffffffffffffffffffffffffffff16141515156121e8576040517f08c379a000000000000000000000000000000000000000000000000000000000815260040180806020018281038252601a8152602001807f757365722068617320616c726561647920757020766f7465642e00000000000081525060200191505060405180910390fd5b600160003373ffffffffffffffffffffffffffffffffffffffff1673ffffffffffffffffffffffffffffffffffffffff1681526020019081526020016000206002600085815260200190815260200160002060050160003373ffffffffffffffffffffffffffffffffffffffff1673ffffffffffffffffffffffffffffffffffffffff168152602001908152602001600020600082018160000190805460018160011615610100020316600290046122a1929190613a7f565b50600182018160010190805460018160011615610100020316600290046122c9929190613a7f565b50600282018160020190805460018160011615610100020316600290046122f1929190613a7f565b506003820160009054906101000a900473ffffffffffffffffffffffffffffffffffffffff168160030160006101000a81548173ffffffffffffffffffffffffffffffffffffffff021916908373ffffffffffffffffffffffffffffffffffffffff160217905550905050600160026000858152602001908152602001600020600201540160026000858152602001908152602001600020600201819055507f98e1d91a2bc9a918d3d72633202ff90ec371f12c8a3e926e02f2e54e2fba580683600260008681526020019081526020016000206000016002600087815260200190815260200160002060020154600160003373ffffffffffffffffffffffffffffffffffffffff1673ffffffffffffffffffffffffffffffffffffffff168152602001908152602001600020600001600160003373ffffffffffffffffffffffffffffffffffffffff1673ffffffffffffffffffffffffffffffffffffffff16815260200190815260200160002060010160405160200180838054600181600116156101000203166002900480156124c15780601f1061249f5761010080835404028352918201916124c1565b820191906000526020600020905b8154815290600101906020018083116124ad575b5050807f2000000000000000000000000000000000000000000000000000000000000000815250600101828054600181600116156101000203166002900480156125425780601f10612520576101008083540402835291820191612542565b820191906000526020600020905b81548152906001019060200180831161252e575b505092505050604051602081830303815290604052336040518086815260200180602001858152602001806020018473ffffffffffffffffffffffffffffffffffffffff1673ffffffffffffffffffffffffffffffffffffffff1681526020018381038352878181546001816001161561010002031660029004815260200191508054600181600116156101000203166002900480156126235780601f106125f857610100808354040283529160200191612623565b820191906000526020600020905b81548152906001019060200180831161260657829003601f168201915b5050838103825285818151815260200191508051906020019080838360005b8381101561265d578082015181840152602081019050612642565b50505050905090810190601f16801561268a5780820380516001836020036101000a031916815260200191505b5097505050505050505060405180910390a160043390806001815401808255809150509060018203906000526020600020016000909192909190916101000a81548173ffffffffffffffffffffffffffffffffffffffff021916908373ffffffffffffffffffffffffffffffffffffffff1602179055505033915050919050565b60058181548110151561271a57fe5b906000526020600020016000915054906101000a900473ffffffffffffffffffffffffffffffffffffffff1681565b6000813373ffffffffffffffffffffffffffffffffffffffff166002600083815260200190815260200160002060040160009054906101000a900473ffffffffffffffffffffffffffffffffffffffff1673ffffffffffffffffffffffffffffffffffffffff1614151515612826576040517f08c379a00000000000000000000000000000000000000000000000000000000081526004018080602001828103825260188152602001807f596f75206172652074686520706f737420617574686f722e000000000000000081525060200191505060405180910390fd5b3373ffffffffffffffffffffffffffffffffffffffff166002600085815260200190815260200160002060060160003373ffffffffffffffffffffffffffffffffffffffff1673ffffffffffffffffffffffffffffffffffffffff16815260200190815260200160002060030160009054906101000a900473ffffffffffffffffffffffffffffffffffffffff1673ffffffffffffffffffffffffffffffffffffffff1614151515612940576040517f08c379a000000000000000000000000000000000000000000000000000000000815260040180806020018281038252601a8152602001807f757365722068617320616c726561647920757020766f7465642e00000000000081525060200191505060405180910390fd5b600160003373ffffffffffffffffffffffffffffffffffffffff1673ffffffffffffffffffffffffffffffffffffffff1681526020019081526020016000206002600085815260200190815260200160002060050160003373ffffffffffffffffffffffffffffffffffffffff1673ffffffffffffffffffffffffffffffffffffffff168152602001908152602001600020600082018160000190805460018160011615610100020316600290046129f9929190613a7f565b5060018201816001019080546001816001161561010002031660029004612a21929190613a7f565b5060028201816002019080546001816001161561010002031660029004612a49929190613a7f565b506003820160009054906101000a900473ffffffffffffffffffffffffffffffffffffffff168160030160006101000a81548173ffffffffffffffffffffffffffffffffffffffff021916908373ffffffffffffffffffffffffffffffffffffffff160217905550905050600160026000858152602001908152602001600020600201540360026000858152602001908152602001600020600201819055507f71f825e64e98d64528a0908df96a3ee568967b7f0c4a55b50add80659ecb5a9c83600260008681526020019081526020016000206000016002600087815260200190815260200160002060020154600160003373ffffffffffffffffffffffffffffffffffffffff1673ffffffffffffffffffffffffffffffffffffffff168152602001908152602001600020600001600160003373ffffffffffffffffffffffffffffffffffffffff1673ffffffffffffffffffffffffffffffffffffffff1681526020019081526020016000206001016040516020018083805460018160011615610100020316600290048015612c195780601f10612bf7576101008083540402835291820191612c19565b820191906000526020600020905b815481529060010190602001808311612c05575b5050807f200000000000000000000000000000000000000000000000000000000000000081525060010182805460018160011615610100020316600290048015612c9a5780601f10612c78576101008083540402835291820191612c9a565b820191906000526020600020905b815481529060010190602001808311612c86575b505092505050604051602081830303815290604052336040518086815260200180602001858152602001806020018473ffffffffffffffffffffffffffffffffffffffff1673ffffffffffffffffffffffffffffffffffffffff168152602001838103835287818154600181600116156101000203166002900481526020019150805460018160011615610100020316600290048015612d7b5780601f10612d5057610100808354040283529160200191612d7b565b820191906000526020600020905b815481529060010190602001808311612d5e57829003601f168201915b5050838103825285818151815260200191508051906020019080838360005b83811015612db5578082015181840152602081019050612d9a565b50505050905090810190601f168015612de25780820380516001836020036101000a031916815260200191505b5097505050505050505060405180910390a160053390806001815401808255809150509060018203906000526020600020016000909192909190916101000a81548173ffffffffffffffffffffffffffffffffffffffff021916908373ffffffffffffffffffffffffffffffffffffffff1602179055505033915050919050565b60608060606000600160003373ffffffffffffffffffffffffffffffffffffffff1673ffffffffffffffffffffffffffffffffffffffff168152602001908152602001600020600001600160003373ffffffffffffffffffffffffffffffffffffffff1673ffffffffffffffffffffffffffffffffffffffff168152602001908152602001600020600101600160003373ffffffffffffffffffffffffffffffffffffffff1673ffffffffffffffffffffffffffffffffffffffff168152602001908152602001600020600201600160003373ffffffffffffffffffffffffffffffffffffffff1673ffffffffffffffffffffffffffffffffffffffff16815260200190815260200160002060030160009054906101000a900473ffffffffffffffffffffffffffffffffffffffff16838054600181600116156101000203166002900480601f0160208091040260200160405190810160405280929190818152602001828054600181600116156101000203166002900480156130285780601f10612ffd57610100808354040283529160200191613028565b820191906000526020600020905b81548152906001019060200180831161300b57829003601f168201915b50505050509350828054600181600116156101000203166002900480601f0160208091040260200160405190810160405280929190818152602001828054600181600116156101000203166002900480156130c45780601f10613099576101008083540402835291602001916130c4565b820191906000526020600020905b8154815290600101906020018083116130a757829003601f168201915b50505050509250818054600181600116156101000203166002900480601f0160208091040260200160405190810160405280929190818152602001828054600181600116156101000203166002900480156131605780601f1061313557610100808354040283529160200191613160565b820191906000526020600020905b81548152906001019060200180831161314357829003601f168201915b50505050509150809050935093509350935090919293565b600960009054906101000a900473ffffffffffffffffffffffffffffffffffffffff1681565b6000604080519081016040528084815260200183815250600260006007548152602001908152602001600020600701600060085481526020019081526020016000206000820151816000015560208201518160010190805190602001906132069291906139ff565b50905050600160003373ffffffffffffffffffffffffffffffffffffffff1673ffffffffffffffffffffffffffffffffffffffff1681526020019081526020016000206002600060075481526020019081526020016000206007016000600854815260200190815260200160002060020160003373ffffffffffffffffffffffffffffffffffffffff1673ffffffffffffffffffffffffffffffffffffffff168152602001908152602001600020600082018160000190805460018160011615610100020316600290046132db929190613a7f565b5060018201816001019080546001816001161561010002031660029004613303929190613a7f565b506002820181600201908054600181600116156101000203166002900461332b929190613a7f565b506003820160009054906101000a900473ffffffffffffffffffffffffffffffffffffffff168160030160006101000a81548173ffffffffffffffffffffffffffffffffffffffff021916908373ffffffffffffffffffffffffffffffffffffffff1602179055509050507f9e3e7915e9a8ff8e158fb064e7ab8986de028abafda9a8cf2087cedd341b57fa60075460085484600160003373ffffffffffffffffffffffffffffffffffffffff1673ffffffffffffffffffffffffffffffffffffffff168152602001908152602001600020600001600160003373ffffffffffffffffffffffffffffffffffffffff1673ffffffffffffffffffffffffffffffffffffffff16815260200190815260200160002060010160405160200180838054600181600116156101000203166002900480156134a05780601f1061347e5761010080835404028352918201916134a0565b820191906000526020600020905b81548152906001019060200180831161348c575b5050807f2000000000000000000000000000000000000000000000000000000000000000815250600101828054600181600116156101000203166002900480156135215780601f106134ff576101008083540402835291820191613521565b820191906000526020600020905b81548152906001019060200180831161350d575b505092505050604051602081830303815290604052336040518086815260200185815260200180602001806020018473ffffffffffffffffffffffffffffffffffffffff1673ffffffffffffffffffffffffffffffffffffffff168152602001838103835286818151815260200191508051906020019080838360005b838110156135b957808201518184015260208101905061359e565b50505050905090810190601f1680156135e65780820380516001836020036101000a031916815260200191505b50838103825285818151815260200191508051906020019080838360005b8381101561361f578082015181840152602081019050613604565b50505050905090810190601f16801561364c5780820380516001836020036101000a031916815260200191505b5097505050505050505060405180910390a1600660085490806001815401808255809150509060018203906000526020600020016000909192909190915055506001600854016008819055506001905092915050565b6003818154811015156136b157fe5b906000526020600020016000915090505481565b6000600115156000803373ffffffffffffffffffffffffffffffffffffffff1673ffffffffffffffffffffffffffffffffffffffff16815260200190815260200160002060009054906101000a900460ff161515141515156137b5576040517f08c379a000000000000000000000000000000000000000000000000000000000815260040180806020018281038252602b8152602001807f596f752061726520616c726561647920656e726f6c6c6564207769746820746881526020017f697320616464726573732e00000000000000000000000000000000000000000081525060400191505060405180910390fd5b60016000803373ffffffffffffffffffffffffffffffffffffffff1673ffffffffffffffffffffffffffffffffffffffff16815260200190815260200160002060006101000a81548160ff0219169083151502179055506080604051908101604052808581526020018481526020018381526020013373ffffffffffffffffffffffffffffffffffffffff16815250600160003373ffffffffffffffffffffffffffffffffffffffff1673ffffffffffffffffffffffffffffffffffffffff168152602001908152602001600020600082015181600001908051906020019061389f9291906139ff565b5060208201518160010190805190602001906138bc9291906139ff565b5060408201518160020190805190602001906138d99291906139ff565b5060608201518160030160006101000a81548173ffffffffffffffffffffffffffffffffffffffff021916908373ffffffffffffffffffffffffffffffffffffffff1602179055509050507f990c442e6adb818b8fa7db3cf1023decd07f7b66e5306928c7ed527d974192bb33604051808273ffffffffffffffffffffffffffffffffffffffff1673ffffffffffffffffffffffffffffffffffffffff16815260200191505060405180910390a16000803373ffffffffffffffffffffffffffffffffffffffff1673ffffffffffffffffffffffffffffffffffffffff16815260200190815260200160002060009054906101000a900460ff1690509392505050565b6006818154811015156139eb57fe5b906000526020600020016000915090505481565b828054600181600116156101000203166002900490600052602060002090601f016020900481019282601f10613a4057805160ff1916838001178555613a6e565b82800160010185558215613a6e579182015b82811115613a6d578251825591602001919060010190613a52565b5b509050613a7b9190613b06565b5090565b828054600181600116156101000203166002900490600052602060002090601f016020900481019282601f10613ab85780548555613af5565b82800160010185558215613af557600052602060002091601f016020900482015b82811115613af4578254825591600101919060010190613ad9565b5b509050613b029190613b06565b5090565b613b2891905b80821115613b24576000816000905550600101613b0c565b5090565b9056fea165627a7a72305820297054df21e3b09dc01573441dd442b7422668e4a0800857ab2c3764373180490029",
  "source": "pragma solidity ^0.5.0;\n\n/** @title PostIt. */\ncontract PostIt {\n/**\n  * Variable declarations\n  */\n\n  mapping (address => bool) public enrolled;\n  mapping (address => User) public userProfiles;\n  mapping (uint256 => Post) public posts;\n\n  uint256[] public postsIndexes;\n  address[] public upVotersIndexes;\n  address[] public downVotersIndexes;\n  uint256[] public commentsIndexes;\n\n  struct User {\n    string firstName;\n    string lastName;\n    string email;\n    address payable accountAddress;\n  }\n\n// struct Post\n  struct Post {\n    string title;\n    string content;\n    uint votes;\n    string author;\n    address payable accountAddress;\n    mapping (address => User) upVoters;\n    mapping (address => User) downVoters;\n    mapping (uint256 => Comment) comments;\n  }\n\n// struct Comment\n  struct Comment {\n    uint256 postId;\n    string commentBody;\n    mapping (address => User) commenters;\n  }\n\n  uint256 postId;\n  uint256 commentId;\n  address public owner;\n\n  // Event logging\n  event LogEnrolled(address accountAddress);\n  event LogNewPostAdded(uint256 postId, string title, string fullName, address accountAddress);\n  event LogUpVote(uint256 postId, string title, uint votes, string fullName, address accountAddress);\n  event LogDownVote(uint256 postId, string title, uint votes, string fullName, address accountAddress);\n  event LogComment(uint256 postId, uint256 commentId, string commentBody, string fullName, address accountAddress);\n\n  // modifiers\n  modifier onlyOwner () { require (msg.sender == owner, \"You are not the owner.\"); _;}\n  modifier notPostAuthor (uint256 _postId) { require (posts[_postId].accountAddress != msg.sender, \"You are the post author.\"); _;}\n  modifier notEnrolled () { require (enrolled[msg.sender] != true, \"You are already enrolled with this address.\"); _;}\n\n  constructor() public {\n    owner = msg.sender;\n    postId = 1;\n    commentId = 1;\n  }\n\n  /** @dev Enrolls a user profile and their account address.\n    * @param firstName of the User.\n    * @param lastName of the User.\n    * @param email of the User.\n    * @return a bool.\n    */\n  function enroll(string memory firstName, string memory lastName, string memory email) notEnrolled() public returns (bool) {\n    enrolled[msg.sender] = true;\n    userProfiles[msg.sender] = User({firstName: firstName, lastName: lastName, email: email, accountAddress: msg.sender});\n    emit LogEnrolled(msg.sender);\n    return enrolled[msg.sender];\n  }\n\n  /** @dev Get a user profile and their account address.\n    * @return a array of firstName, lastName and email of a User.\n    */\n  function getUserProfile() public view returns (string memory, string memory, string memory, address) {\n    return (userProfiles[msg.sender].firstName, userProfiles[msg.sender].lastName, userProfiles[msg.sender].email, userProfiles[msg.sender].accountAddress);\n  }\n\n  /** @dev Add a post.\n    * @param title of a Post.\n    * @param content of a Post.\n    * @param vote of a Post.\n    * @return a bool.\n    */\n  function addPostIt(string memory title, string memory content, uint vote) public returns(bool) {\n    posts[postId] = Post({title: title, content: content, votes: vote, author: string(abi.encodePacked(userProfiles[msg.sender].firstName, \" \", userProfiles[msg.sender].lastName)),  accountAddress: msg.sender});\n    emit LogNewPostAdded(postId, title, string(abi.encodePacked(userProfiles[msg.sender].firstName, \" \", userProfiles[msg.sender].lastName)), msg.sender);\n    postsIndexes.push(postId);\n    postId = postId + 1;\n    return true;\n  }\n\n  /** @dev Get a post.\n    * @param _postId of a Post.\n    * @return a array with postId, title, content, votes, author, accountAddress (of author).\n    */\n  function getPost(uint256 _postId) public view returns(uint256, string memory, string memory, uint, string memory, address) {\n    return(_postId, posts[_postId].title, posts[_postId].content, posts[_postId].votes, posts[_postId].author, posts[_postId].accountAddress);\n  }\n\n  /** @dev Vote up a post, if you're not the author.\n    * @param _postId of a Post.\n    * @return a address of the user.\n    */\n  function makeUpVote(uint256 _postId) notPostAuthor(_postId) public returns(address) {\n    require(posts[_postId].upVoters[msg.sender].accountAddress != msg.sender, \"user has already up voted.\");\n    posts[_postId].upVoters[msg.sender] = userProfiles[msg.sender];\n    posts[_postId].votes = posts[_postId].votes + 1;\n    emit LogUpVote(_postId, posts[_postId].title, posts[_postId].votes, string(abi.encodePacked(userProfiles[msg.sender].firstName, \" \", userProfiles[msg.sender].lastName)), msg.sender);\n    upVotersIndexes.push(msg.sender);\n    return msg.sender;\n  }\n\n  /** @dev Vote down a post, if you're not the author.\n    * @param _postId of a Post.\n    * @return a address of the user.\n    */\n  function makeDownVote(uint256 _postId) notPostAuthor(_postId) public returns(address) {\n    require(posts[_postId].downVoters[msg.sender].accountAddress != msg.sender, \"user has already up voted.\");\n    posts[_postId].upVoters[msg.sender] = userProfiles[msg.sender];\n    posts[_postId].votes = posts[_postId].votes - 1;\n    emit LogDownVote(_postId, posts[_postId].title, posts[_postId].votes, string(abi.encodePacked(userProfiles[msg.sender].firstName, \" \", userProfiles[msg.sender].lastName)), msg.sender);\n    downVotersIndexes.push(msg.sender);\n    return msg.sender;\n  }\n\n  /** @dev Add a comment to a post.\n    * @param _postId of a Post.\n    * @param commentBody of the comment.\n    * @return a bool.\n    */\n  function addComment(uint256 _postId, string memory commentBody) public returns(bool) {\n    posts[postId].comments[commentId] = Comment({postId: _postId, commentBody: commentBody});\n    posts[postId].comments[commentId].commenters[msg.sender] = userProfiles[msg.sender];\n    emit LogComment(postId, commentId, commentBody, string(abi.encodePacked(userProfiles[msg.sender].firstName, \" \", userProfiles[msg.sender].lastName)), msg.sender);\n    commentsIndexes.push(commentId);\n    commentId = commentId + 1;\n    return true;\n  }\n\n  /** @dev Get all post indexed.\n    * @return a array of postIndexes.\n    */\n  function getAllPosts() external view returns(uint256[] memory) {\n    return postsIndexes;\n  }\n\n  /** @dev Get all up voters indexed.\n    * @return a array of upVotersIndexes.\n    */\n  function getAllUpVoters() external view returns(address[] memory) {\n    return upVotersIndexes;\n  }\n\n  /** @dev Get all down voters indexed.\n    * @return a array of downVotersIndexes.\n    */\n  function getAllDownVoters() external view returns(address[] memory) {\n    return downVotersIndexes;\n  }\n\n  /** @dev Get all comments indexed.\n    * @return a array of commentsIndexes.\n    */\n  function getAllComments() external view returns(uint256[] memory) {\n    return commentsIndexes;\n  }\n\n  /** @dev Fallback revert method.\n    */\n  function() external {\n    revert();\n  }\n}\n",
  "sourcePath": "/Users/rvansant/Sites/consensys-projects/final-project-partofthecollective/contracts/PostIt.sol",
  "compiler": {
    "name": "solc",
    "version": "0.5.0+commit.1d4f565a.Emscripten.clang"
  },
  "schemaVersion": "3.0.0",
  "updatedAt": "2019-01-27T23:37:59.942Z",
  "devdoc": {
    "methods": {
      "addComment(uint256,string)": {
        "details": "Add a comment to a post.",
        "params": {
          "_postId": "of a Post.",
          "commentBody": "of the comment."
        },
        "return": "a bool."
      },
      "addPostIt(string,string,uint256)": {
        "details": "Add a post.",
        "params": {
          "content": "of a Post.",
          "title": "of a Post.",
          "vote": "of a Post."
        },
        "return": "a bool."
      },
      "enroll(string,string,string)": {
        "details": "Enrolls a user profile and their account address.",
        "params": {
          "email": "of the User.",
          "firstName": "of the User.",
          "lastName": "of the User."
        },
        "return": "a bool."
      },
      "getAllComments()": {
        "details": "Get all comments indexed.",
        "return": "a array of commentsIndexes."
      },
      "getAllDownVoters()": {
        "details": "Get all down voters indexed.",
        "return": "a array of downVotersIndexes."
      },
      "getAllPosts()": {
        "details": "Get all post indexed.",
        "return": "a array of postIndexes."
      },
      "getAllUpVoters()": {
        "details": "Get all up voters indexed.",
        "return": "a array of upVotersIndexes."
      },
      "getPost(uint256)": {
        "details": "Get a post.",
        "params": {
          "_postId": "of a Post."
        },
        "return": "a array with postId, title, content, votes, author, accountAddress (of author)."
      },
      "getUserProfile()": {
        "details": "Get a user profile and their account address.",
        "return": "a array of firstName, lastName and email of a User."
      },
      "makeDownVote(uint256)": {
        "details": "Vote down a post, if you're not the author.",
        "params": {
          "_postId": "of a Post."
        },
        "return": "a address of the user."
      },
      "makeUpVote(uint256)": {
        "details": "Vote up a post, if you're not the author.",
        "params": {
          "_postId": "of a Post."
        },
        "return": "a address of the user."
      }
    },
    "title": "PostIt. "
  },
  "userdoc": {
    "methods": {}
  }
}